:100000000C9434000C9451000C9451000C94510049
:100010000C9451000C9451000C9451000C9451001C
:100020000C9451000C9451000C9451000C94F20269
:100030000C9451000C9451000C9451000C945100FC
:100040000C9451000C9451000C9451000C945100EC
:100050000C9451000C9451000C9451000C945100DC
:100060000C9451000C94510011241FBECFEFD8E026
:10007000DEBFCDBF11E0A0E0B1E0E8E4FEE002C0E9
:1000800005900D92A031B107D9F725E0A0E1B1E0CC
:1000900001C01D92AF34B207E1F70E9459010C94E0
:1000A00022070C940000CF93DF93EC010E948E0492
:1000B0008091100190911101892B31F485E191E03B
:1000C000909311018093100120911201309113013E
:1000D000CE01820F931F873E43E0940770F42817E8
:1000E000390770F4C0911001D0911101C20FD31FD4
:1000F000909313018093120105C0C0E0D0E002C0CC
:10010000C0E0D0E00E944F05CE01DF91CF9108956D
:100110000895209112013091130187EE93E0821B24
:10012000930B0895FC010396928381832FEF3FEF99
:1001300034832383968385839087878310820895F1
:10014000FC01118610860895CF93DF939C01FB017B
:10015000DC011196CD91DC911297D383C2838C81FF
:100160009D81958384838C819D81DC0113967C9392
:100170006E9312977D836C8331872087F90180818C
:100180008F5F8083DF91CF910895CF93DF93EB0151
:10019000488159814F3F2FEF520721F4FC01A7817D
:1001A000B0850DC0DC01139601C0DF011296ED9100
:1001B000FC9113972081318142175307B0F71296B3
:1001C000ED91FC911397FB83EA83D583C483BD83B0
:1001D000AC831396DC93CE93129799878887FC01A2
:1001E00020812F5F2083DF91CF910895CF93DF93FC
:1001F000FC01A085B185C281D381848195819D83D5
:100200008C83C481D581828193819B838A8311965B
:10021000CD91DC911297CE17DF0731F48C819D814F
:1002200012969C938E931197118610868C91815013
:100230008C93DF91CF910895519A599A8FE99FE05D
:100240000197F1F700C00000599881E090E00E940A
:10025000CE05F3CFCF93DF93CDB7DEB7C25DD10923
:100260000FB6F894DEBF0FBECDBF509AE12CF12C33
:10027000589A0E2D1F2D0E94AF06F801EE0FFF1F9A
:1002800021E030E02C0F3D1FE20FF31F91838083AC
:100290000F5F1F4F0936110571F78FE99FE0019736
:1002A000F1F700C00000589881E090E00E94CE0570
:1002B000DFCFEF92FF920F93CF93DF9300D0CDB7B4
:1002C000DEB7E12CF12C01E021E330E04FEF50E00C
:1002D00064E071E08AE291E00E94600322E330E092
:1002E0004FEF50E067E071E08CE191E00E94600325
:1002F0000E9489009A8389830E94640480E090E0D0
:100300000F900F90DF91CF910F91FF90EF90089594
:10031000CF93DF9300D0CDB7DEB781E090E09A8332
:1003200089830F900F90DF91CF91089531E1FC0107
:100330003083319722E220833197A3E3A083319762
:1003400060833197708331971082319760E86083C2
:1003500031971082319762E06083319763E0608368
:10036000319764E06083319765E06083319766E0A0
:100370006083319767E06083319768E060833197ED
:1003800069E06083319760E1608331973083319712
:1003900032E13083319733E13083319734E1308378
:1003A000319735E13083319736E13083319737E14A
:1003B0003083319738E13083319739E13083319799
:1003C00030E23083319731E23083319720833197A7
:1003D00023E220833197408331975083319726E27F
:1003E0002083319727E22083319728E220833197B9
:1003F00029E22083319720E32083319721E3208372
:10040000869708958AE78093890081E18093880028
:100410008BE080938100EFE6F0E080818260808352
:10042000A0914D05B0914E05CD91CDBFDD91DEBFC0
:10043000FF91EF91DF91CF91BF91AF919F918F91FC
:100440007F916F915F914F913F912F911F910F91EC
:10045000FF90EF90DF90CF90BF90AF909F908F90E4
:100460007F906F905F904F903F902F901F900F90D4
:100470000FBE0F90089581E008950F920FB6F89483
:100480000F921F9211242F923F924F925F926F9280
:100490007F928F929F92AF92BF92CF92DF92EF9214
:1004A000FF920F931F932F933F934F935F936F93FD
:1004B0007F938F939F93AF93BF93CF93DF93EF93EC
:1004C000FF93A0914D05B0914E050DB60D920EB65D
:1004D0000D920E94E205A0914D05B0914E05CD917F
:1004E000CDBFDD91DEBFFF91EF91DF91CF91BF9145
:1004F000AF919F918F917F916F915F914F913F91BC
:100500002F911F910F91FF90EF90DF90CF90BF90B0
:10051000AF909F908F907F906F905F904F903F90A3
:100520002F901F900F900FBE0F9008950F920FB64F
:10053000F8940F921F9211242F923F924F925F9244
:100540006F927F928F929F92AF92BF92CF92DF92E3
:10055000EF92FF920F931F932F933F934F935F93CD
:100560006F937F938F939F93AF93BF93CF93DF93BB
:10057000EF93FF93A0914D05B0914E050DB60D92EE
:100580000EB60D920E94940481110E94E205A09182
:100590004D05B0914E05CD91CDBFDD91DEBFFF91F0
:1005A000EF91DF91CF91BF91AF919F918F917F910B
:1005B0006F915F914F913F912F911F910F91FF90FC
:1005C000EF90DF90CF90BF90AF909F908F907F90F3
:1005D0006F905F904F903F902F901F900F900FBEA5
:1005E0000F9008950E9496021895E0911505F091DC
:1005F00016058081811107C08FEF9FEF9093000552
:100600008093FF040895E0911505F091160505808B
:10061000F681E02D0680F781E02D82819381909311
:1006200000058093FF040895C9E2D5E088818230F7
:10063000F0F30E943D02FACF0F931F93CF93DF9305
:10064000EC01009107051091080580914D059091EE
:100650004E0502960E94F600C00FD11FE0914D0595
:10066000F0914E05D383C283C017D10768F460911F
:100670004D0570914E0580911305909114056E5FA4
:100680007F4F0E94C50017C060914D0570914E05C7
:1006900080911505909116056E5F7F4F0E94C500F1
:1006A0008091FF0490910005C817D90720F4D093DA
:1006B0000005C093FF04DF91CF911F910F91089522
:1006C0004F925F926F927F928F929F92AF92BF9262
:1006D000CF92DF92EF92FF920F93CF93DF934C0173
:1006E0006B015A012901CA010E9453003C01892B68
:1006F00009F4D9C086E290E00E945300EC01892BF6
:1007000071F0788E6F8A81E0A81AB1086A0C7B1CA0
:10071000D6018C91898F8C91811105C018C0C301BD
:100720000E948800C0C0AE01465E5F4FF601319660
:10073000B8E0CB0ED11CCF012191DA012D93AD0190
:10074000DC018C91882319F0EC15FD05A1F718A2A6
:10075000043008F003E00E8B6E01B2E0CB0ED11C2A
:10076000C6010E94A000CE010C960E94A000D9876D
:10077000C88784E090E0801B91099D878C87DB8B84
:10078000CA8B19A21AA21BA21CA21DA2A201B4010B
:10079000C3010E94960199838883E114F10419F042
:1007A000F701D183C0830FB6F8940F9280910905A9
:1007B0008F5F8093090580914D0590914E05892B9F
:1007C00089F5D0934E05C0934D0580910905813080
:1007D000C9F589E295E00E94920082E395E00E94CB
:1007E00092008BE395E00E94920084E495E00E94E1
:1007F000920080E295E00E94920087E195E00E94DD
:1008000092008AE095E00E94920080E295E0909349
:1008100016058093150587E195E090931405809364
:10082000130510C08091050581110CC0E0914D05A4
:10083000F0914E0596898E89891720F0D0934E0548
:10084000C0934D05809101058F5F809301058E89CE
:1008500090910605981710F48093060590E09C018E
:10086000220F331F220F331F220F331F820F931FBC
:10087000B601875D9A4F0E94A4000F900FBE809131
:100880000505882361F0E0914D05F0914E059689AC
:100890008E89981730F40E943D0281E005C081E006
:1008A00003C081E001C08FEFDF91CF910F91FF90E6
:1008B000EF90DF90CF90BF90AF909F908F907F9000
:1008C0006F905F904F900895EF92FF920F930F2ECD
:1008D000FDEFEF2EF4E0FF2EF02D00E020E030E001
:1008E00040E550E06AE071E084E193E00E9460033B
:1008F000813081F4F8948FEF9FEF909300058093FF
:10090000FF0481E080930505109208051092070509
:100910000E9402020F91FF90EF9008958091FC04D5
:100920008F5F8093FC040895CF92DF92EF92FF9245
:100930000F931F93CF93DF938091FC04811199C093
:10094000E0900705F09008058FEFE81AF80AF0929A
:100950000805E0920705E114F104B9F4809115054A
:1009600090911605209113053091140530931605CA
:10097000209315059093140580931305809102052B
:100980008F5F809302050E94F5028091FF04909191
:100990000005E816F90610F4D12C53C0D12CCC2454
:1009A000C394E0911505F09116059081911107C04F
:1009B0008FEF9FEF909300058093FF0442C0E0917A
:1009C0001505F09116050580F681E02DC681D781C9
:1009D0002A813B81E216F30628F430930005209328
:1009E000FF042FC08E010E5F1F4FC8010E94F6004A
:1009F0008C899D89892B21F0CE010C960E94F600EE
:100A00002E8980910605821710F42093060530E0A8
:100A1000C901880F991F880F991F880F991F820F8E
:100A2000931FB801875D9A4F0E94A400E0914D0585
:100A3000F0914E059E898689981708F4B2CFDC2C78
:100A4000B0CFE0914D05F0914E05868990E0FC0114
:100A5000EE0FFF1FEE0FFF1FEE0FFF1F8E0F9F1FEA
:100A6000FC01E75DFA4F8081823048F0DD24D394A9
:100A700006C0809104058F5F80930405D12C80917E
:100A80000305882311F0DD24D3948D2DDF91CF91C0
:100A90001F910F91FF90EF90DF90CF900895DF921C
:100AA000EF92FF920F931F93CF93DF930FB6F894BB
:100AB0000F928091FC0481508093FC048091FC048F
:100AC00081115FC080910905811133C05DC0D701DC
:100AD0001596ED91FC911697C681D781CE010C96A3
:100AE0000E94F6008E010E5F1F4FC8010E94F600A3
:100AF0002E8980910605821710F42093060530E0B8
:100B0000C901880F991F880F991F880F991F820F9D
:100B1000931FB801875D9A4F0E94A400E0914D0594
:100B2000F0914E059E898689981768F0D09203054A
:100B30000AC0C0E0D0E00F2EFAE0EF2EF5E0FF2E65
:100B4000F02DDD24D394F70180818111C0CFCD2B0E
:100B500011F00E94F502C0910405CC2351F0D1E0C0
:100B60000E9494048111D0930305C150C9F71092DB
:100B7000040580910305882331F00E943D0281E045
:100B800003C080E001C080E00F900FBEDF91CF91E5
:100B90001F910F91FF90EF90DF900895CF93DF9317
:100BA000EC01892B51F00E948E0460E0CE010E947E
:100BB0001C030E944F05811102C00E943D02DF917B
:100BC000CF9108958091FC04882321F081E08093E7
:100BD0000305089510920305A0914D05B0914E05AF
:100BE000E0914D05F0914E052D913C918789908DB6
:100BF0008217930760F060914D0570914E058091CA
:100C00004D0590914E05675E7F4F0E9488012091AF
:100C10000605822F90E0FC01EE0FFF1FEE0FFF1F75
:100C2000EE0FFF1FE80FF91FE75DFA4F308131111A
:100C300011C02150822F90E0FC01EE0FFF1FEE0F3C
:100C4000FF1FEE0FFF1FE80FF91FE75DFA4F30811E
:100C5000332379F3AC01440F551F440F551F440F44
:100C6000551F480F591FDA01A75DBA4F1196ED9134
:100C7000FC9112970280F381E02D1296FC93EE9383
:100C80001197445D5A4FE417F50729F442815381C7
:100C9000FD0152834183FC01EE0FFF1FEE0FFF1F8A
:100CA000EE0FFF1F8E0F9F1FFC01E75DFA4F0180C3
:100CB000F281E02D8681978190934E0580934D05BA
:100CC0002093060508958F929F92AF92BF92CF9284
:100CD000DF92EF92FF92CF93DF93EC0168817981ED
:100CE0008A819B81611571058105910521F464E27A
:100CF00079ED8BE597E02DE133EF41E050E00E9484
:100D0000BF0649015A019B01AC01A7EAB1E40E9468
:100D1000DE066B017C01ACEEB4EFA50194010E94EC
:100D2000EC06DC01CB018C0D9D1DAE1DBF1DB7FF78
:100D300003C00197A109B04888839983AA83BB8324
:100D40009F77DF91CF91FF90EF90DF90CF90BF9092
:100D5000AF909F908F9008950E946306089580E061
:100D600091E00E9463060895A0E0B0E08093000146
:100D700090930101A0930201B09303010895052E01
:100D800097FB1EF400940E94D60657FD07D00E94E0
:100D9000F10607FC03D04EF40C94D606509540950E
:100DA000309521953F4F4F4F5F4F08959095809517
:100DB000709561957F4F8F4F9F4F08950E94130745
:100DC000A59F900DB49F900DA49F800D911D11249F
:100DD0000895B7FF0C94DE060E94DE06821B930B7B
:100DE0000895A1E21A2EAA1BBB1BFD010DC0AA1F6C
:100DF000BB1FEE1FFF1FA217B307E407F50720F084
:100E0000A21BB30BE40BF50B661F771F881F991FFE
:100E10001A9469F760957095809590959B01AC0147
:100E2000BD01CF010895A29FB001B39FC001A39F50
:100E3000700D811D1124911DB29F700D811D112413
:080E4000911D0895F894FFCF05
:100E48000100000054310054320049444C45000070
:00000001FF
