S01900006672656572746F735F70726F626C656D312E7372656320
S11300000C9434000C9451000C9451000C94510045
S11300100C9451000C9451000C9451000C94510018
S11300200C9451000C9451000C9451000C94AE02A9
S11300300C9451000C9451000C9451000C945100F8
S11300400C9451000C9451000C9451000C945100E8
S11300500C9451000C9451000C9451000C945100D8
S11300600C9451000C94510011241FBECFEFD8E022
S1130070DEBFCDBF11E0A0E0B1E0ECE0FCE002C0E7
S113008005900D92AC30B107D9F725E0ACE0B1E0B2
S113009001C01D92AD34B207E1F70E942F010C9408
S11300A004060C940000CF93DF93EC010E944A04F1
S11300B080910C0190910D01892B31F481E191E043
S11300C090930D0180930C0120910E0130910F014A
S11300D0CE01820F931F873E43E0940770F42817E4
S11300E0390770F4C0910C01D0910D01C20FD31FD8
S11300F090930F0180930E0105C0C0E0D0E002C0D0
S1130100C0E0D0E00E940B05CE01DF91CF910895AD
S11301100895FC010396928381832FEF3FEF34838C
S11301202383968385839087878310820895FC01B7
S1130130118610860895CF93DF939C01FB01DC01A7
S11301401196CD91DC911297D383C2838C819D81CA
S1130150958384838C819D81DC0113967C936E93BB
S113016012977D836C8331872087F90180818F5FAB
S11301708083DF91CF910895CF93DF93EB01488182
S113018059814F3F2FEF520721F4FC01A781B0851D
S11301900DC0DC01139601C0DF011296ED91FC91B4
S11301A013972081318142175307B0F71296ED91CE
S11301B0FC911397FB83EA83D583C483BD83AC830B
S11301C01396DC93CE93129799878887FC0120813C
S11301D02F5F2083DF91CF910895CF93DF93FC01AC
S11301E0A085B185C281D381848195819D838C83CF
S11301F0C481D581828193819B838A831196CD9119
S1130200DC911297CE17DF0731F48C819D81129611
S11302109C938E931197118610868C9181508C93A8
S1130220DF91CF9108958FEF9FEF10924C051092BC
S11302304B0590934C0580934B05F7CF579AC0E834
S113024080914B0590914C050196029710F41BB8D0
S113025001C0CBB981E090E00E948A05F1CFEF9212
S1130260FF920F93E12CF12C01E021E330E04FEFFA
S113027050E060E071E083E191E00E941C0302E041
S113028022E330E04FEF50E063E071E08EE191E073
S11302900E941C030E94200480E090E00F91FF90D4
S11302A0EF90089531E1FC013083319722E22083FD
S11302B03197A3E3A083319760833197708331979B
S11302C01082319760E8608331971082319762E041
S11302D06083319763E06083319764E06083319792
S11302E065E06083319766E06083319767E06083FF
S11302F0319768E06083319769E06083319760E10A
S1130300608331973083319732E13083319733E121
S11303103083319734E13083319735E1308331973D
S113032036E13083319737E13083319738E13083D8
S1130330319739E13083319730E23083319731E2BC
S1130340308331972083319723E220833197408390
S113035031975083319726E22083319727E2208317
S1130360319728E22083319729E22083319720E3D3
S11303702083319721E32083869708958AE7809329
S1130380890081E1809388008BE080938100EFE60F
S1130390F0E0808182608083A0914905B0914A0594
S11303A0CD91CDBFDD91DEBFFF91EF91DF91CF9174
S11303B0BF91AF919F918F917F916F915F914F9179
S11303C03F912F911F910F91FF90EF90DF90CF906D
S11303D0BF90AF909F908F907F906F905F904F9061
S11303E03F902F901F900F900FBE0F90089581E0C3
S11303F008950F920FB6F8940F921F9211242F9222
S11304003F924F925F926F927F928F929F92AF92A0
S1130410BF92CF92DF92EF92FF920F931F932F938D
S11304203F934F935F936F937F938F939F93AF9378
S1130430BF93CF93DF93EF93FF93A0914905B091BE
S11304404A050DB60D920EB60D920E949E05A0911E
S11304504905B0914A05CD91CDBFDD91DEBFFF9135
S1130460EF91DF91CF91BF91AF919F918F917F9148
S11304706F915F914F913F912F911F910F91FF9039
S1130480EF90DF90CF90BF90AF909F908F907F9030
S11304906F905F904F903F902F901F900F900FBEE2
S11304A00F9008950F920FB6F8940F921F92112493
S11304B02F923F924F925F926F927F928F929F9270
S11304C0AF92BF92CF92DF92EF92FF920F931F935E
S11304D02F933F934F935F936F937F938F939F9348
S11304E0AF93BF93CF93DF93EF93FF93A09149050D
S11304F0B0914A050DB60D920EB60D920E945004AD
S113050081110E949E05A0914905B0914A05CD91A3
S1130510CDBFDD91DEBFFF91EF91DF91CF91BF9110
S1130520AF919F918F917F916F915F914F913F9187
S11305302F911F910F91FF90EF90DF90CF90BF907C
S1130540AF909F908F907F906F905F904F903F906F
S11305502F901F900F900FBE0F9008950E9452028B
S11305601895E0911105F09112058081811107C061
S11305708FEF9FEF9093FC048093FB040895E09128
S11305801105F09112050580F681E02D0680F781B2
S1130590E02D828193819093FC048093FB04089561
S11305A0C5E2D5E088818230F0F30E94F901FACFE8
S11305B00F931F93CF93DF93EC01009103051091E8
S11305C004058091490590914A0502960E94ED0028
S11305D0C00FD11FE0914905F0914A05D383C2832E
S11305E0C017D10768F46091490570914A0580915C
S11305F00F05909110056E5F7F4F0E94BC0017C0DD
S11306006091490570914A058091110590911205F8
S11306106E5F7F4F0E94BC008091FB049091FC04AC
S1130620C817D90720F4D093FC04C093FB04DF91CE
S1130630CF911F910F9108954F925F926F927F9285
S11306408F929F92AF92BF92CF92DF92EF92FF92DE
S11306500F93CF93DF934C016B015A012901CA0117
S11306600E9453003C01892B09F4D9C086E290E032
S11306700E945300EC01892B71F0788E6F8A81E01F
S1130680A81AB1086A0C7B1CD6018C91898F8C91B5
S1130690811105C018C0C3010E948800C0C0AE010A
S11306A0465E5F4FF6013196B8E0CB0ED11CCF0108
S11306B02191DA012D93AD01DC018C91882319F08D
S11306C0EC15FD05A1F718A2043008F003E00E8B29
S11306D06E01B2E0CB0ED11CC6010E949700CE0180
S11306E00C960E949700D987C88784E090E0801B0D
S11306F091099D878C87DB8BCA8B19A21AA21BA236
S11307001CA21DA2A201B401C3010E94520199833B
S11307108883E114F10419F0F701D183C0830FB683
S1130720F8940F92809105058F5F80930505809161
S1130730490590914A05892B89F5D0934A05C093C0
S11307404905809105058130C9F585E295E00E944F
S113075089008EE295E00E94890087E395E00E947B
S1130760890080E495E00E9489008CE195E00E9474
S1130770890083E195E00E94890086E095E00E946B
S113078089008CE195E0909312058093110583E133
S113079095E09093100580930F0510C0809101059A
S11307A081110CC0E0914905F0914A0596898E8922
S11307B0891720F0D0934A05C09349058091FD0420
S11307C08F5F8093FD048E8990910205981710F431
S11307D08093020590E09C01220F331F220F331FE8
S11307E0220F331F820F931FB6018B5D9A4F0E9415
S11307F09B000F900FBE80910105882361F0E0916A
S11308004905F0914A0596898E89981730F40E941B
S1130810F90181E005C081E003C081E001C08FEFF0
S1130820DF91CF910F91FF90EF90DF90CF90BF9029
S1130830AF909F908F907F906F905F904F900895AE
S1130840EF92FF920F930F2EF9EFEF2EF4E0FF2EAD
S1130850F02D00E020E030E040E550E066E071E09B
S113086080ED92E00E941C03813081F4F8948FEFB4
S11308709FEF9093FC048093FB0481E08093010537
S113088010920405109203050E94BE010F91FF907F
S1130890EF9008958091F8048F5F8093F804089591
S11308A0CF92DF92EF92FF920F931F93CF93DF9338
S11308B08091F804811199C0E0900305F09004053B
S11308C08FEFE81AF80AF0920405E0920305E114A8
S11308D0F104B9F4809111059091120520910F054E
S11308E03091100530931205209311059093100553
S11308F080930F058091FE048F5F8093FE040E9415
S1130900B1028091FB049091FC04E816F90610F4FE
S1130910D12C53C0D12CCC24C394E0911105F09177
S113092012059081911107C08FEF9FEF9093FC0403
S11309308093FB0442C0E0911105F09112050580FB
S1130940F681E02DC681D7812A813B81E216F30628
S113095028F43093FC042093FB042FC08E010E5F17
S11309601F4FC8010E94ED008C899D89892B21F0BD
S1130970CE010C960E94ED002E898091020582170B
S113098010F42093020530E0C901880F991F880FE5
S1130990991F880F991F820F931FB8018B5D9A4F7F
S11309A00E949B00E0914905F0914A059E89868941
S11309B0981708F4B2CFDC2CB0CFE0914905F09140
S11309C04A05868990E0FC01EE0FFF1FEE0FFF1F22
S11309D0EE0FFF1F8E0F9F1FFC01EB5DFA4F80810E
S11309E0823048F0DD24D39406C0809100058F5FE7
S11309F080930005D12C8091FF04882311F0DD241D
S1130A00D3948D2DDF91CF911F910F91FF90EF9093
S1130A10DF90CF900895DF92EF92FF920F931F9390
S1130A20CF93DF930FB6F8940F928091F80481501E
S1130A308093F8048091F80481115FC080910505CA
S1130A40811133C05DC0D7011596ED91FC911697C5
S1130A50C681D781CE010C960E94ED008E010E5FF7
S1130A601F4FC8010E94ED002E8980910205821754
S1130A7010F42093020530E0C901880F991F880FF4
S1130A80991F880F991F820F931FB8018B5D9A4F8E
S1130A900E949B00E0914905F0914A059E89868950
S1130AA0981768F0D092FF040AC0C0E0D0E00F2E7F
S1130AB0F6E0EF2EF5E0FF2EF02DDD24D394F701C0
S1130AC080818111C0CFCD2B11F00E94B102C09161
S1130AD00005CC2351F0D1E00E9450048111D09341
S1130AE0FF04C150C9F7109200058091FF048823C8
S1130AF031F00E94F90181E003C080E001C080E090
S1130B000F900FBEDF91CF911F910F91FF90EF9047
S1130B10DF900895CF93DF93EC01892B51F00E946D
S1130B204A0460E0CE010E94D8020E940B058111A4
S1130B3002C00E94F901DF91CF9108958091F804D9
S1130B40882321F081E08093FF0408951092FF042C
S1130B5020910205822F90E0FC01EE0FFF1FEE0FA3
S1130B60FF1FEE0FFF1FE80FF91FEB5DFA4F3081F7
S1130B70311111C02150822F90E0FC01EE0FFF1FB4
S1130B80EE0FFF1FEE0FFF1FE80FF91FEB5DFA4F8B
S1130B903081332379F3AC01440F551F440F551FA3
S1130BA0440F551F480F591FDA01AB5DBA4F119618
S1130BB0ED91FC9112970280F381E02D1296FC9343
S1130BC0EE931197485D5A4FE417F50729F44281D3
S1130BD05381FD0152834183FC01EE0FFF1FEE0F91
S1130BE0FF1FEE0FFF1F8E0F9F1FFC01EB5DFA4FDF
S1130BF00180F281E02D8681978190934A0580934C
S10F0C004905209302050895F894FFCFE5
S10F0C0C54310054320049444C450000AF
S9030000FC
